:020000040800F2
:10800000D8AA002055830008B918010865E40008C3
:10801000811701089D9B00085D51010800000000C8
:1080200000000000000000000000000025820008A1
:10803000CDAF000800000000DD8200084183000889
:108040006F8300086F8300086F8300086F83000848
:108050006F8300086F83000829B000086F83000851
:108060006F8300086F8300086F8300086F83000828
:108070006F8300086F8300086F8300086F83000818
:108080006F8300086F8300086F8300086F83000808
:10809000E94001086F8300086F8300086F830008C0
:1080A0006F8300086F8300086F8300086F830008E8
:1080B0006F8300082D3201086F8300086F8300086A
:1080C0006F8300086F8300086F8300086F830008C8
:1080D0006F830008D13B01086F8300086F8300089D
:1080E0006F830008452101086F8300086F83000833
:1080F0006F8300086F8300086F8300086F83000898
:108100006F8300086F8300086F8300086F83000887
:10811000FD3A0108593B01086F8300086F8300088E
:108120006F8300086F8300086F8300086F83000867
:108130006F8300086F8300086F8300086F83000857
:108140008D9E00086F8300086F8300086F8300080E
:108150006F8300086F8300086F8300086F83000837
:108160006F8300086F8300086F8300086F83000827
:108170006F8300086F8300086F8300086F83000817
:108180006F8300086F8300086F8300086F83000807
:108190006F8300086F830008DFF81CD001F006F839
:1081A00013F0FEFC0021034813F07CFD13F00AFDE0
:1081B000FEE70000A8F40108D8AA002080F309888F
:1081C0007047EFF309807047684680F309880448D8
:1081D0000078C00714BF0220032080F31488704782
:1081E00068F40108DFF818C0EFF305831B0618BF19
:1081F0006047EFF31483DB0708BF604700DF704779
:1082000061BF0108DFF818C0EFF305831B0618BF34
:108210006047EFF31483DB0708BF604700DF704758
:1082200045C10108EFF30980816911F8021CE1BB27
:1082300090E80F1010B5E047BDE81040EFF3098C4F
:108240008CE80700214B93E80600914208BF704775
:1082500041B91EF0100F16D11D49086820F0010029
:10826000086010E01EF0100F06BF2CED108A0120F0
:10827000002081F825002CE9F00FC1F828C00CB4CB
:1082800014F012FB0CBC1A60D2F828C0BCE8F00F46
:1082900092F8250000280EBF6FF0020E6FF0120E4C
:1082A000BCEC108A8CF30988704710B5094A126833
:1082B000914209D8084C54F8214090E80F10A0478B
:1082C000EFF3098C8CE80F0010BD0000E8020020DD
:1082D00034EF00E0889500088895000810B514F088
:1082E000A7F9BDE81040154B93E80600914208BF7E
:1082F0007047EFF3098C1EF0100F06BF2CED108AAB
:108300000120002081F825002CE9F00FC1F828C0D9
:108310000CB414F0C9FA0CBC1A60D2F828C0BCE83E
:10832000F00F92F8250000280EBF6FF0020E6FF0DC
:10833000120EBCEC108A8CF309887047E80200200A
:1083400010B514F079FBCCE710B513F011FD14F063
:1083500073FBC6E70648804706480047FEE7FEE78E
:10836000FEE7FEE7FEE7FEE7FEE7FEE7FEE7FEE7E5
:108370007D310108998100082DE9F05F0546002054
:1083800092469B4688460646814640241BE0284686
:1083900041464746224600F02FF853465A46C01A37
:1083A000914110D311461846224600F016F82D1AB6
:1083B00067EB01084F4622460120002100F00DF82E
:1083C00017EB00094E41201EA4F10104DFDC4846F2
:1083D00031462A464346BDE8F09F202A04DB203A76
:1083E00000FA02F1002070479140C2F1200320FA08
:1083F00003F3194390407047202A04DB203A21FA06
:1084000002F00021704721FA02F3D040C2F12002AD
:10841000914008431946704740EA01039B0703D087
:1084200009E008C9121F08C0042AFAD203E011F8B3
:10843000013B00F8013B521EF9D27047D2B201E075
:1084400000F8012B491EFBD270470022F6E710B559
:1084500013460A4604461946FFF7F0FF204610BDB2
:1084600030B505462A460B4612F8010B13F8014BAE
:1084700008B1A042F8D01CB1002802D06D1CF1E771
:10848000284630BD421C10F8011B0029FBD1801A80
:10849000704710B5002200E0521C835C8C5CA34244
:1084A00001D1002BF8D1D8B2E1B2401A10BD30B5DD
:1084B00004460020034600E05B1C934203D2E05CCC
:1084C000CD5C401BF8D030BD0FB400B58DB010A905
:1084D00009900B9000914FF0FF300A9000200C9013
:1084E00005480690054807906A4609A80F9900F0CC
:1084F000F7FC0DB05DF814FBFD8E00081B8F000823
:108500002DE9FF5F1D464FF0FF3BD5E9014691463F
:108510005F464FF00008A9697F1C01988847296AC7
:10852000824688470028F6D1BAF1FF3F0CD024F4E8
:10853000C064002E19DD600614D5BAF12B0F09D0E6
:10854000BAF12D0F0ED103E0584604B0BDE8F09FFC
:1085500044F48064A9697F1C01988847761E82468E
:10856000002E02DDBAF1300F03D0B9F1000F26D092
:1085700032E0A969761E44F400747F1C0198884794
:108580008246002E05DDBAF1780F06D0BAF1580FF9
:1085900003D0B9F1000F10D01EE0B9F1000F02D0E6
:1085A000B9F1100F18D1A969761E24F400747F1C4C
:1085B000019888478246102002E0082000E00A2047
:1085C000814609E008FB0908A969761E44F4007495
:1085D0007F1C019888478246002E05DD494650469B
:1085E00000F06AFC0028EDDAE96901988847A005E7
:1085F00002D46FF00100A8E7E00725D1600613D58B
:10860000600502D5C8F1000000E0404629680A1D57
:108610002A600968220501D5087015E0220701D5F6
:10862000088011E008600FE02868011D29600068DB
:10863000210502D580F8008006E0210702D5A0F8C8
:10864000008001E0C0F8008038467EE72DE9FF5F3A
:10865000D2E901A74FF00008916999461446DDF868
:1086600038B0464601988847054659EA0B0005D0C0
:1086700009E0A169761C019888470546216A2846C9
:1086800088470028F5D1681C03D05FEACA7005D07E
:1086900015E04FF0FF3004B0BDE8F09F2068011DE9
:1086A0002160D0F800800AE05FEACA7001D108F8C2
:1086B000015BA169761C7F1E019888470546002F43
:1086C0001ADD681C18D0B9F1000F0DD0E81705EBC2
:1086D000D060421120F01F0059F822102A1A012000
:1086E00090400142E0D107E0BBF1000FDCD1216AEC
:1086F000284688470028D7D0E16901988847BBF110
:10870000000F07D1002E05DD5FEACA7002D10021FB
:1087100088F80010A068B84203DDBBF1000F03D059
:1087200017B16FF00100B6E73046B4E72DE9FF4F0F
:10873000087883B09946FF2805D0491C2D2804D01D
:108740000024002008E000200BE00124F9E700EB02
:10875000800003EB4000491C0B78FF2BF7D104B1DC
:10876000404200230293147819461D462D2C01D057
:108770002B2C04D1521C2D2C13D000240294AA4679
:108780001478FF2C0FD00A25A3FB057801FB058187
:108790004FF0000C03FB0C11521CE3194AEB0101D2
:1087A000EEE70124EAE7814453EA010002D019F51B
:1087B000C87F06DA03980021C0E9001107B0BDE8C0
:1087C000F08F0025AE4E2F46DFF8B882184600F035
:1087D000B1FCCDE90001B9F1000002DAC9F10004F1
:1087E00000E004460023A74A1AEB030B42EB045AAD
:1087F00012E0E00707D02A4633463846414600F0EB
:10880000ECF9074688462A4633461046194600F0DA
:10881000E4F905460E466410002CEAD1DDE90001BA
:10882000B9F1000F5A46534606DA00F048FA3A46C4
:10883000434600F044FA05E000F0CFF93A464346DB
:1088400000F0CBF9029A0AB181F00041039AC2E923
:108850000001B3E72DE9FF4F1F468DB0D7E9014670
:108860004FF0FF382E2045464FF000090B90B969B4
:108870006D1C0E988847396A824688470028F6D1D1
:10888000BAF1FF3F0AD024F4D064002E11DDBAF112
:108890002B0F08D0BAF12D0F0BD102E0404611B0DA
:1088A0008DE744F48064B9696D1C0E988847824650
:1088B000761E6946600501D52D2000E02B208DF83D
:1088C000000001F1010B0DF1200809E0B9696D1CF0
:1088D0000E98884782460F9844F40074761E05600F
:1088E000002E02DDBAF1300FF0D00B998A453ED14F
:1088F00044F0800406E00F99681CA9F1010944F4D2
:1089000000740860B9696D1C761E0E98884782460F
:108910003028F0D02BE00B998A4505D1200603D4EE
:1089200044F08004761E18E050460DF0C0FE08B3F7
:108930000DF11301761E44F400748B4508D2AAF1A0
:1089400030000BF8010B200607D5A9F1010003E068
:10895000200602D409F101008146A00502D50F9935
:10896000681C0860B9696D1C0E9888478246002E05
:10897000D1DC53E0002E51DDBAF1650F02D0BAF11F
:10898000450F4BD1A00549D5B9696D1C24F440743D
:10899000761E0E9888478246002E0CDD2B2804D0C8
:1089A000BAF12D0F07D144F48074B9696D1C0E988B
:1089B00088478246761EE00501D52D2100E02B2157
:1089C00008F8011BCDF82C8021E00DF12901761E5D
:1089D00044F4007488450CD2AAF1300010F0FF0076
:1089E00088F8000002D10B99884509D908F10108DF
:1089F00006E0E00501D5244801E042F20F7081460F
:108A0000B9696D1C0E98884782460F980560002E44
:108A100004DD50460DF04BFE0028D6D1F9690E98C2
:108A20008847FF208BF8000088F80000002006909F
:108A300007904B466A4608A906A8FFF777FEA005EF
:108A400002D46FF001002AE714F0240F0AD0E007E7
:108A500014D1DDE906123868031D3B600068C0E9E7
:108A600000120BE0DDE9060100F0E2F90146E00743
:108A700004D13868021D3A600068016028460EE79C
:108A8000000014400000F03FF1D8FFFF2DE9FE4F39
:108A9000804681EA0300C00F0C46009021F000419F
:108AA00023F00045B8EB0200A94105D2404621461B
:108AB00090461C460B46024623F00040104347D028
:108AC000270DC7F30A00C3F30A510290401A019020
:108AD00040286BDAC3F3130040F4801B00989246E1
:108AE00020B10023D2EB030A63EB0B0B019859462C
:108AF000C0F140025046FFF770FC06460D46504656
:108B00005946019A00F0C6F910EB080061410024B3
:108B100087EA115284EAE7731A4340D0009A62B39D
:108B2000019A012A4FEA075215DC001B61EB020192
:108B30004FF0004202EA0752CDE90042001C41F525
:108B4000801132462B4600F03FFA03B0BDE8F08FAB
:108B500040462146F9E7001B61EB0201001C41F58C
:108B6000801300185B412018A2F5001747EB0301A2
:108B700040EAD570B6196D4111E06D084FEA36062E
:108B800045EAC0754FEA0752001B61EB0201001C69
:108B900041F5801149084FEA300000195141324631
:108BA0002B4603B0BDE8F04F00F0FFB9009801225A
:108BB00040000023D0EB020263EBE07300982146F3
:108BC0004FEAE074B8EB000061EB0401E9E783F0E1
:108BD00000435BE781F0004158E72DE9FE4F81EA51
:108BE000030404F0004421F0004100944FF0000B16
:108BF00023F0004350EA01045ED052EA03045BD044
:108C0000C3F30A54C1F30A552C44A4F2F33401947B
:108C1000A0FB0254C1F3130141F48011C3F3130309
:108C200043F4801301FB024400FB034E840A970ABD
:108C300044EA815447EA8357A4FB076802958D0AEA
:108C400005FB07854FEA932C04FB0C542705029D76
:108C50004FEA065847EA1637B5EB08056EEB070CE6
:108C6000870E920E47EA811742EA8312A7FB0201A0
:108C7000B6EB0B0164EB00042B0D43EA0C335E18DA
:108C800044EB1C50DA465146E7FB0201C5F31304DE
:108C90004FEA0B3343EA14534FEA0432019C43EA90
:108CA0000603A4F10C040294009CCDE900B400F08A
:108CB0008BF903B0BDE8F08F00200146F9E72DE9FC
:108CC000F04D81EA030404F0004B21F00045144606
:108CD0004FF0000A23F0004150EA050220D054EA88
:108CE00001021DD0C5F30A570246C5F31303C1F3B1
:108CF0001300C1F30A5640F4801543F48013A7EB28
:108D00000608101BD64608F2FD3873EB050002D3A7
:108D100008F1010801E092185B41B8F1000F03DA95
:108D200000200146BDE8F08D00204FF4801106467A
:108D300084460EE0171B73EB050705D3121B63EB8C
:108D4000050306434CEA010C49084FEA300092182B
:108D50005B4150EA0107EDD152EA030012D082EAEA
:108D6000040083EA0501084305D0101BAB4106D27D
:108D70000122002306E000224FF0004302E06FF0E2
:108D8000010253101AEB06004CEB085110EB0A00DD
:108D900041EB0B01BDE8F04D00F007B90EB5C10F76
:108DA00080EAE0700844CA07002140F233438DE8AE
:108DB0000E000A460B4600F007F903B000BD0EB5E1
:108DC00040F2334102910021CDE900110A460B46E1
:108DD00000F0FAF803B000BDC1F30A5210B5C1F3B8
:108DE000130140F2FF3341F480119A4201DA00206E
:108DF00010BD40F233439A42A2F2334203DC5242A6
:108E0000FFF7FAFA10BD904010BD00F0004230F0BC
:108E100000400AD0C10D01F56071C0F3160042EAAE
:108E20000151C208400711437047002001467047B6
:108E300001F0004330B421F0004150EA010206D0B5
:108E40000A0DA2F56072C1F31301002A02DC30BCE6
:108E500000207047440F44EAC104C100E01830BC50
:108E600000EBC25000F06AB830B50B460146002056
:108E70002022012409E021FA02F59D4205D303FADC
:108E800002F5491B04FA02F52844151EA2F101025D
:108E9000F1DC30BD202A06DBCB17203A41FA02F084
:108EA00043EAE07306E041FA02F3D040C2F1200247
:108EB00091400843194670473A2800D2303820F0D4
:108EC0002002412A01D3A2F13700884201D34FF09A
:108ED000FF307047026811441378016018467047EC
:108EE000D1600449516104491162002111611146A8
:108EF00000F074B9D58E0008D1910008426842B1E3
:108F0000016811F8013B23B1521EC0E90012184656
:108F100070470121C160881E704742685AB1C3681A
:108F2000016843B983688B4205D0491E521CC0E9D1
:108F30000012002070474FF0FF3070470029A8BF93
:108F40007047401C490008BF20F00100704710B472
:108F5000B0FA80FC00FA0CF050EA010404BF10BC27
:108F6000704749B1CCF1200421FA04F411FA0CF154
:108F700018BF012121430843A3EB0C01CB1D4FEA8D
:108F800000614FEA102042BF002010BC704700EB88
:108F9000C35010440029A4BF10BC7047401C4900B6
:108FA00008BF20F0010010BC704710B5141E73F10B
:108FB000000408DA401C41F1000192185B411A4399
:108FC00001D120F0010010BD2DE9F04D92469B46E5
:108FD00011B1B1FA81F202E0B0FA80F2203290468B
:108FE000FFF7FBF904460F4640EA0A0041EA0B018D
:108FF00053465A46084313D0114653EA010019D08C
:10900000C8F140025046FFF7F7F905460E465046B4
:1090100059464246FFF7E1F9084305D0012004E034
:1090200020463946BDE8F08D0020054346EAE0764B
:109030002C4337430A986305E40AA0EB080000229A
:10904000FD0A44EA47540A3002D500200146E9E708
:10905000010510196941DDE9084500196941BDE8BC
:10906000F04DA2E770B521F0004303430CD0C1F3EB
:109070000A550024D5EB040564EB0403D617AD1A9A
:10908000B34102DB0020014670BD201841EB0251C4
:1090900070BD2DE9F04D00231A461B1A8A4103DBEF
:1090A00000200146BDE8F08DC1F30A52C1F313015F
:1090B00041F480154FF0000BD10702D100186D412B
:1090C000521E0027044640F2FF11384601EB620AA7
:1090D0003E468046024600204FF48011FFF78CF98F
:1090E000C2197141BB1846EB0100B4EB030C75EBE0
:1090F000000C04D3E41A65EB000517460E4624194C
:1091000008F101006D4180463428E3DDF91946EB92
:109110000600091BA84103D24FF0FF32134601E0BD
:10912000002213461BEB070046EB0A51BDE8F04D49
:10913000FFF73BBF0EB540F2334202920022CDE969
:1091400000221346FFF740FF03B000BDC1F30A52EF
:10915000C1F3130140F2FF3341F480119A4202DA65
:1091600000200146704740F233439A42A2F2334254
:1091700002DC5242FFF740B9FFF72FB930B5041EA9
:1091800071F1000404DB4FF00044404264EB010144
:10919000141E73F1000405DB1C464FF000435242DD
:1091A00063EB0403994208BF904230BD064C074D63
:1091B00006E0E06840F0010394E8070098471034A7
:1091C000AC42F6D3FEF7ECFFD0F50108F0F501084C
:1091D000C0B24FF4F05100F097B900002DE9F34F01
:1091E0008BB04FF0000801F10C000C464FF0010B62
:1091F00046460DF1080A01906269012101989047E5
:10920000051E2DD0252D2CD0216A8847C0B162695A
:10921000012101989047216A88470028F7D1411E13
:1092200062690198904700E0761CA1690B98884715
:10923000216A88470028F7D1E1690B988847DBE766
:10924000A1690B9888470746A84201D1761CD3E74D
:10925000E1690B9888477F1C02D1B8F1000F6FD0ED
:1092600046E1002762693D463946019890472A2821
:1092700004D162690121019890470125DFF88492A9
:109280006269012101989047A0F130010A290AD2B0
:109290004F45E5DC07EB870100EB4107303FDFD4AA
:1092A00045F01005ECE7E90601D46FF000476C28A3
:1092B0000AD04C2814D0682815D06A280DD07428FC
:1092C0001CD07A281AD01DE06269012101989047CC
:1092D0006C2802D045F0040514E045F002050DE0CD
:1092E00045F020050AE0626901210198904768284D
:1092F00002D045F0080505E045F4006562690121EA
:1093000001989047C4E9015765283DD019DC5828D9
:109310007AD00CDC452837D004DC252826D041281B
:1093200031D131E046282FD047282CD12CE05B28C2
:1093300077D0612828D063287CD0642823D15AE0D4
:10934000D0E06F2848D008DC66281DD067281BD0E5
:10935000692821D06E2816D127E0702845D07328BF
:1093600068D0752847D078280DD14DE0A1690B98B9
:109370008847054625283FF469AFE1690B9888477F
:109380006D1C3FF46AAFB3E023466A466FF00100FC
:109390000B99FFF75FFA9EE045F040006060A80778
:1093A00023464FF0000236D43EE0E8077FF447AF93
:1093B0002068011D21600068290501D506701BE7A2
:1093C000290701D5068017E7A90703D5F117C0E9DA
:1093D000006111E706600FE745F040006060A807F4
:1093E00023464FF0080216D41EE040F60E0125EA8F
:1093F0000100606016E045F040006060A807234669
:109400004FF00A0207D40FE045F040006060A80763
:1094100008D5234610226FF001000B99AFF30080AE
:1094200059E007E0234610226FF001000B99FFF787
:1094300067F850E04FF000094F464B46632802D0D2
:109440005B2806D040E0E80601D40120A060012797
:109450003AE062690121019890475E2805D14FF0FA
:1094600001096269494601989047216939B900218B
:109470000A46534643F82120491C0829FADBB0B3B9
:10948000216969B9C11700EBD16253110AEB83015D
:1094900022F01F02821A01200B68904003430B60E8
:1094A00062690121019890475D28E8D1B9F1000F68
:1094B00009D00020514651F82020D24341F8202005
:1094C000401C0828F7DB02AB224600976FF0010032
:1094D0000B99FFF7BBF800280CDA401C08D1BBF150
:1094E000000F05D04FF0FF300DB0BDE8F08FFFE763
:1094F0004046F9E7E90701D108F1010806444FF0B9
:10950000000B79E6CCCCCC0C7F2801D9002208E0F6
:10951000064A02EB5002C007127800D1120902F08D
:109520000F020120904008407047000048F50108F4
:1095300070B58C1810F8015B15F0070301D110F815
:10954000013B2A1106D110F8012B03E010F8016B42
:1095500001F8016B5B1EF9D12B0705D40023521EC5
:109560000DD401F8013BFAE710F8013BCB1A921C2D
:1095700003E013F8015B01F8015B521EF9D5A1422B
:10958000D8D3002070BD000000000000F0B50446F4
:10959000154600200022122905D1E06D20F00700B9
:1095A0001843E06520E0092911DDE068A1F10A0611
:1095B00006EB4607072606FA07F29043A1F10A06D2
:1095C00006EB460603FA06F21043E0600CE0206961
:1095D00001EB4107072606FA07F2904301EB41062B
:1095E00003FA06F210432061072D0FDA606B6E1E3E
:1095F00006EB86071F2606FA07F290436E1E06EB5F
:10960000860601FA06F21043606322E00D2D0FDAA0
:10961000206BEE1F06EB86071F2606FA07F2904323
:10962000EE1F06EB860601FA06F21043206310E0F7
:10963000E06AA5F10D0606EB86071F2606FA07F27B
:109640009043A5F10D0606EB860601FA06F21043DB
:10965000E062F0BD00B587B00121102008F05AFC8F
:109660000121080308F026FC0820ADF818000020AE
:109670008DF81B0003208DF81A0006A91A4803F084
:1096800097F9002001908DF808008DF809004FF43B
:10969000602003900020049001208DF8140001A99F
:1096A000124800F053F80523012209210F48FFF763
:1096B0006DFF01210D4800F01BF800BF20210B4871
:1096C00000F03AF80028F9D0084800F067F800BF29
:1096D000064800F023F80028FAD10121034800F0E1
:1096E00012F807B000BD0000001001400008024061
:1096F00021B1826842F00102826003E0826822F0B8
:1097000001028260704721B1826842F4A002826047
:1097100003E0826822F4A0028260704701460020C4
:109720008A6802F004020AB1012000E000207047BC
:109730000146C86C80B2704702460020936D0B4012
:109740000BB1012000E000207047000030B5024658
:109750000020002350680F4C20400D790C6844EA2B
:1097600005242043506090680B4C2040D1E90254FE
:109770002C434D7944EA450420439060D06A20F49C
:1097800070000C7C641EE4B2234340EA0350D062B4
:1097900030BD0000FFFEF0FFFDF7F1FF816841F0F2
:1097A000040181607047000010B52048007830B196
:1097B00001280ED0022816D003282AD11EE04FF42B
:1097C00000411B4803F088F91A49FA2001F0B0F86B
:1097D00029E04FF40041164803F080F91549FA20BA
:1097E00001F0A6F81FE04FF40041114803F076F9AC
:1097F00010494FF4FA7001F09BF814E04FF4004167
:109800000B4803F069F90B494FF4FA7001F090F836
:1098100009E04FF40041064803F060F90549FA20D9
:1098200001F086F800BF00BF10BD00007D000020E1
:10983000000C01400064004010B52C48007820B1B5
:1098400001280BD002284ED13EE0FFF7ADFF0020EB
:109850002749088001202549087044E02548007800
:1098600048BB23480088401C2149088008460088DE
:10987000B0F57A7F27DD20480078401C1E4908702B
:109880000846007803281BDD002008701B4800787C
:10989000401C1A4908700846007802280CDD4FF475
:1098A0000041174803F018F91649FA2001F040F872
:1098B00002200E49087006E000200C49087002E002
:1098C00000200A4908700EE00A48007850B90E4896
:1098D000007838B14FF480710C4803F0FFF8022093
:1098E0000449087000BF00BF10BD00007E000020CA
:1098F000800000207C0000207D0000207F000020F0
:10990000000C014000640040660000200008014097
:1099100008B50146002000900348009000980844D4
:1099200000900098008808BD006C004008B5002237
:109930000092044A0092009A02440092009A116038
:1099400008BD0000006C00407FB5054600242320C0
:109950008B4908704870C81C02F042FC89480078A6
:10996000874908750120487568460FF079FE10F0A8
:10997000CDFB029004F11800814908440099016070
:10998000BDF804108180A41D7F480088011204F1F5
:1099900018007B4A11547C48017804F119001154D5
:1099A000A41C812104F118001154641C002104F14D
:1099B000180011540F2104F119001154A41C04F1D2
:1099C0001801881810F026FA0F34012104F118004C
:1099D0006B4A1154641C04F11801881802F0A6F9AE
:1099E000204484B2022104F11800654A1154601C1D
:1099F00084B204F11801881801F0B8FF204484B241
:109A0000802104F118005E4A1154601C84B204F1F4
:109A10001801881801F03CFF204484B220125849F4
:109A20008875CC7505F0010040B30220887004F100
:109A3000160081B25248801C01F048FB04F1180165
:109A40004F4A5054481C81B2012009F011FB0646D0
:109A50002EB904F1190081B2494802F06BFE4A4860
:109A60000088401C48490880084600884FF6FB7172
:109A7000884202DB00204449088000BF032040499F
:109A8000887004F1160081B23D48801C01F01EFB75
:109A900004F118013A4A5054601C84B205F00200E7
:109AA00000286CD005F00100E8B3384800780128A0
:109AB0003AD14FF47F40ADF80E00354800681830B9
:109AC0002044801D3349344A127841F82200084668
:109AD0003149097850F82100B0F5C01F17D32D483F
:109AE0002D49097850F82100A0F5C01029492A4ACB
:109AF000127841F8220008462749097850F82100D9
:109B000000F50C302349244A127841F822002248FB
:109B10000078401C2049087008460078322807D396
:109B20000020087004E0FFE74FF6F070ADF80E007B
:109B300004F1180012490844029901600399416038
:109B400004F1200082B20123114801680C4814F08E
:109B500023FC04F120000E49096808440C49086000
:109B600008460068B0F5C01F09D308460068A0F594
:109B7000C01008600846006800F50C3008607FBD22
:109B8000D83700201401002016010020F500002025
:109B90000401002020360020F300002000BFFEE773
:109BA00070B50546002429460C4800F087FB0646A0
:109BB00001E0601C84B23146084800F013FC012823
:109BC00003D040F6FF708442F3DB40F6FF7084421E
:109BD00001DB012070BD0020FCE7000000640040B4
:109BE00010B50021837A012202FA03F13D4A12687E
:109BF00042F001023B4B1A603A4A1C3212688A4317
:109C0000384B1C331A60027BCAB9364A0C321268D0
:109C10008A43344B0C331A604288C38842EA0343B8
:109C2000304A4032847A42F834300288838842EAEB
:109C300003432C4A4032847A02EBC4025360027B15
:109C4000012A19D1274A0C3212680A43254B0C33DA
:109C50001A604288038842EA0343224A4032847AE7
:109C600042F83430C288838842EA03431D4A4032B6
:109C7000847A02EBC4025360C27A3AB9194A121DBF
:109C800012688A43174B1B1D1A6006E0154A121D05
:109C900012680A43134B1B1D1A60028932B9114A1C
:109CA000143212688A430F4B14331A600289012A56
:109CB00006D10C4A143212680A430A4B14331A6054
:109CC000427B012A06D1074A1C3212680A43054B1F
:109CD0001C331A60034A126822F00102014B1A6019
:109CE00010BD0000006600407FB50546684610F0D4
:109CF00091F800240DE005F10B00015DE01D1DF859
:109D000000000C4A12781044814200D003E0601C2D
:109D1000C4B2082CEFDB00BF082C0AD1054800783C
:109D2000C01C012101FA00F00349098808430249D7
:109D300008807FBD200000201A00002070B5054675
:109D4000002429460E4800F0B9FA064601E0601CDE
:109D500084B231460A4800F045FB012803D040F6A2
:109D6000FF708442F3DB40F6FF70844205DB31462E
:109D7000034800F0C9F8012070BD0020FCE7000096
:109D80000068004010B50021837A012202FA03F135
:109D90003D4A126842F001023B4B1A603A4A1C32BB
:109DA00012688A43384B1C331A60027BCAB9364AA0
:109DB0000C3212688A43344B0C331A604288C388D1
:109DC00042EA0343304A4032847A42F8343002880F
:109DD000838842EA03432C4A4032847A02EBC4026D
:109DE0005360027B012A19D1274A0C3212680A43B8
:109DF000254B0C331A604288038842EA0343224A07
:109E00004032847A42F83430C288838842EA03437D
:109E10001D4A4032847A02EBC4025360C27A3AB9D6
:109E2000194A121D12688A43174B1B1D1A6006E05F
:109E3000154A121D12680A43134B1B1D1A60028932
:109E400032B9114A143212688A430F4B14331A6024
:109E50000289012A06D10C4A143212680A430A4BBD
:109E600014331A60427B012A06D1074A1C32126859
:109E70000A43054B1C331A60034A126822F00102A0
:109E8000014B1A6010BD0000006A004010B586B09A
:109E900000211C4800F08BF9002831D001AA0021D4
:109EA000184800F093F90EF00BF904463CB39DF806
:109EB0000E00A0709DF80C00042804D10298606088
:109EC0000420E07003E0019860600020E070002052
:109ED00007E00DF10F010A5C04F108010A54411C6E
:109EE000C8B2A1788142F4DC02206070207820F0B2
:109EF000F0002070207820F00F00401C207000BF80
:109F000006B010BD0068004021B1012907D0022928
:109F10000FD109E0826842F0800282600AE0826824
:109F200042F40042826005E0826842F400028260EE
:109F300000E000BF00BF704710B504460B488442E4
:109F400009D10121480607F0D5FF00214FF000702C
:109F500007F0D0FF08E00121880607F0CBFF0021C1
:109F60004FF0806007F0C6FF10BD000000640040A5
:109F700008B50121192007F0CDFF0121880607F05F
:109F8000A9FF4FF40050ADF8000018208DF8030031
:109F900003208DF802006946384802F009FD4FF4AD
:109FA0008050ADF8000048208DF803006946334822
:109FB00002F0FEFC4FF40070ADF8000010208DF8A8
:109FC000030003208DF8020069462D4802F0F0FCE2
:109FD0000121082007F09EFF0121042007F09AFFCD
:109FE0000121102007F096FF4FF40071244802F081
:109FF00073FD0121480607F06DFF4FF48050ADF866
:10A00000000018208DF8030003208DF80200694637
:10A010001C4802F0CDFC4FF40060ADF80000482071
:10A020008DF803006946174802F0C2FC4FF48070B7
:10A03000ADF8000010208DF8030003208DF8020019
:10A040006946104802F0B4FC4FF40040ADF800003F
:10A0500010208DF8030003208DF8020069460748A0
:10A0600002F0A6FC4FF40041044802F035FD4FF425
:10A070008071044802F030FD08BD0000000C014072
:10A0800000100140000801401AB143690B434361CD
:10A0900002E043698B434361704730B502460020BC
:10A0A0000023146824F002041460146844F00104CE
:10A0B000146000E05B1C546804F001041CB94FF606
:10A0C000FF74A342F6D1546804F001040CB90020D7
:10A0D0006CE08C79012C04D1146844F08004146085
:10A0E00003E0146824F080041460CC79012C04D1BE
:10A0F000146844F04004146003E0146824F0400441
:10A1000014600C7A012C04D1146844F0200414600B
:10A1100003E0146824F0200414604C7A012C04D16C
:10A12000146844F01004146003E0146824F0100470
:10A1300014608C7A012C04D1146844F00804146073
:10A1400003E0146824F008041460CC7A012C04D1D4
:10A15000146844F00404146003E0146824F0040458
:10A1600014608C78A407CD7844EA05640D7944EA3C
:10A1700005444D7944EA05540D886D1E2C43D46185
:10A18000146824F001041460002300E05B1C546890
:10A1900004F001041CB14FF6FF74A342F6D15468D9
:10A1A00004F001040CB1002000E0012030BD0246A3
:10A1B000002019B9D36803F0030006E0012903D198
:10A1C000136903F0030000E00020704710B500F5AC
:10A1D000D87303EB01131B6803F004031372137AA3
:10A1E00053B900F5D87303EB01131B6840F2FF74F9
:10A1F00004EA5353136009E000F5D87303EB01132D
:10A200001B686FF0604404EAD303536000F5D87311
:10A2100003EB01131B6803F00203537200F5D873BC
:10A2200003EB01135B6803F00F03937200F5D8731F
:10A2300003EB01135B681B0AD37400F5D87303EBBF
:10A2400001139B68D37200F5D87303EB01139B686D
:10A250001C0A147300F5D87303EB01139B681C0CE4
:10A26000547300F5D87303EB01139B681B0E9373B3
:10A2700000F5D87303EB0113DB68D37300F5D873D3
:10A2800003EB0113DB681C0A147400F5D87303EBAD
:10A290000113DB681C0C547400F5D87303EB011335
:10A2A000DB681B0E937421B9C36843F02003C360BD
:10A2B00003E0036943F02003036110BD10B50246BB
:10A2C0000020936803F08063B3F1806F00D110E049
:10A2D000936803F00063B3F1006F01D1012008E03F
:10A2E000936803F08053B3F1805F01D1022000E056
:10A2F0000420042874D002F5C07303EB00131B681C
:10A3000003F0010402F5C07303EB00131C600B7A29
:10A310007BB94B7A0C8843EA445302F5C07404EBD2
:10A3200000142468234302F5C07404EB0014236076
:10A3300010E00B7A4C6843EAC4034C7A234302F5DD
:10A34000C07404EB00142468234302F5C07404EBCA
:10A35000001423608B7A03F00F038B7202F5C07335
:10A3600003EB00135B6823F00F0402F5C07303EBEB
:10A3700000135C6002F5C07303EB00135B688C7A1A
:10A38000234302F5C07404EB001463608B7B1C064E
:10A390004B7B44EA03440B7B44EA0323CC7A2343FC
:10A3A00002F5C07404EB0014A3608B7C1C064B7C8C
:10A3B00044EA03440B7C44EA0323CC7B234302F5A9
:10A3C000C07404EB0014E36002F5C07303EB0013E8
:10A3D0001B6843F0010402F5C07303EB00131C601B
:10A3E00010BD000010B50246002321B1012907D09D
:10A3F00002290FD109E090681D4C00EA04030BE02C
:10A4000090681C4C00EA040306E090681A4C00EACD
:10A41000040301E0002300BF00BF184C181BA34237
:10A4200016D007DC83B16FF08060184470B1022849
:10A4300018D111E0B0F5007F10D0114C204448B184
:10A44000B0F5003F0ED10BE002230DE000230BE03E
:10A45000002309E0002307E0012305E0012303E0D6
:10A46000012301E0002300BF00BFD8B210BD0000EF
:10A4700003000004000300080000031000010008AE
:10A480000001FFF7F0B589B004460D460026484F9D
:10A490000D2248A101A8FDF7BFFFA07801287BD1BC
:10A4A000A5F10B0082B24748006800F54051022335
:10A4B00004F10A0013F070FF28B90822424943480A
:10A4C00009F02CFD17E007224149404809F026FD1C
:10A4D00040A013F031FFE6793F480078401C8642E7
:10A4E00009D13E4800880B38364909680844354987
:10A4F000086039480670E0780006217940EA01409A
:10A50000617940EA0120A17908432E49096888420F
:10A510002BD10DF0B3FC78B9142011F035FB0722D4
:10A520002F492A4809F0FAFC0DF09EFD00B93BE0E6
:10A5300000202449086037E04FF0A5332148394610
:10A54000026801A812F024FC142011F01DFB062261
:10A5500024491E4809F0E2FC00201A4908606420E2
:10A5600011F012FB07F0E6F81CE0E0780006217914
:10A5700040EA0140617940EA0120A179084311498C
:10A58000096888420DD207221549104809F0C6FC17
:10A590000DF06AFD08B907E005E0002009490860F0
:10A5A00002E001E000E000BF00BF09B0F0BD000024
:10A5B000011501204F424453355337363030563061
:10A5C00036000000640200207202002000380140C2
:10A5D0007A0200200D0A0000700200206C020020A8
:10A5E000810200208802002010B500BF5248007888
:10A5F00000283CD1514800880FF0FCFC0A2835DDCA
:10A600000A224E4801884E480FF040F84C48007826
:10A6100023281AD14A484078232816D14848407A3E
:10A620004749097A00EB012046490880084600881E
:10A630000B30088008460088B0F5806F05D80120EF
:10A640003D4908700020404908703B4800780028C8
:10A650006FD13A480088401C384908800846008875
:10A66000B0F5806F65DB0020088062E062E033486F
:10A6700000880FF0BFFC33490988884240DB002086
:10A680002D4908702F4802882C4801882C480EF06C
:10A69000FDFF2C480088C11E2948801C00F016FDD3
:10A6A00028490988491E264A515C884216D1234808
:10A6B0000088244909880844204908800846008801
:10A6C000B0F5806F04DB08460088A0F58060088044
:10A6D0001C4801881A48FFF7D5FE2AE01748008871
:10A6E000401C1649088008460088B0F5806F01DBE1
:10A6F0000020088008221549154809F00FFC18E0D1
:10A7000011480078642805DA0F480078401C0E498B
:10A7100008700FE000200849087008480088401CB5
:10A720000649088008460088B0F5806F01DB0020EC
:10A7300008805BE700BF10BD6A02002062020020B3
:10A74000C66E00206C0200206E0200207202002003
:10A750000038014070B502460B464FF6FF700021ED
:10A760000FE0565C86EA1020002407E000F00105A7
:10A77000400815B14AF201067040641C082CF5D35C
:10A78000491C9942EDD370BD2DE9F047C0B0804619
:10A790000E464FF0FF350027DFF8DCA000242DE047
:10A7A0000821204608F0E8F80006344941F8240062
:10A7B0004FF0000914E0314850F8240000F0004048
:10A7C00008B1504600E000202C4951F8241080EADE
:10A7D00041002A4941F8240009F101001FFA80F9DB
:10A7E000B9F1080FE7DB254951F82400202108F0D2
:10A7F000C3F8224941F82400601C84B2FF2CCFDD4D
:10A8000018E00223DA014146684611F0DBFA002025
:10A810000AE0E9B21DF800205140184A52F8211010
:10A8200081EA1525411C88B2FF28F2D908F5807805
:10A8300007F5807707F58070B042E2D9B74216D2AB
:10A84000F01B82B202234146684611F0BBFA002099
:10A850000AE0E9B21DF800205140084A52F82110E0
:10A8600081EA1525411C88B2F11B8142F1D8ED43E4
:10A87000284640B0BDE8F087B71DC104B0450020B0
:10A880001FB51148FFF758FB00208DF80A008DF81E
:10A890000B0001208DF80C000020ADF80000ADF891
:10A8A0000200ADF80400ADF80600ADF80800012084
:10A8B0008DF80D006846FFF793F901220221024846
:10A8C000FFF7E2FB1FBD0000006400401FB5114808
:10A8D000FFF732FB00208DF80A008DF80B000120F5
:10A8E0008DF80C000020ADF80000ADF80200ADF8C6
:10A8F0000400ADF80600ADF8080001208DF80D0049
:10A900006846FFF73FFA012202210248FFF7BCFB2D
:10A910001FBD00000068004010B500F031F810BD08
:10A9200010B5FFF725FBFFF7ABFFFFF7CFFF10BD1B
:10A93000FEB504460D464FF4FA6090FBF4F0C6B243
:10A9400000208DF806008DF807008DF808008DF8BE
:10A9500009008DF80A0001208DF80B0000208DF809
:10A9600002008DF803000D208DF8040002208DF800
:10A970000500ADF8006069462846FFF78EFBFEBD76
:10A9800070B5002500BF02F077F9044604B92DE048
:10A99000E078042815D14FF6FF71606801EA104095
:10A9A00041F6DA0188420CD04FF6FF71606801EA87
:10A9B000104041F6DB01884203D0204606F0C4FB7C
:10A9C00010E0E07858B96068B0F5887F07D10420BE
:10A9D000E07007486060204606F0B6FB02E02046C3
:10A9E00004F0DEFD681CC5B21E2DCCDB00BF70BDBF
:10A9F000059899183248008832490988884211D050
:10AA00002F4800882F49088000202F4908802F49AF
:10AA100008702F480068002850D000202C49803151
:10AA200008604BE02848008841F6583188421DDD17
:10AA30000020284908702448008840F24D1190FBFE
:10AA4000F1F201FB1200B0F5A67F37D11F48007864
:10AA500078B31F48006820B100201D49803108608C
:10AA60002CE001201A498031086027E01648008850
:10AA7000401C154908800846008841F270718842E0
:10AA800002DB0120114908700F48008840F24D1187
:10AA900090FBF1F201FB1200B0F5A67F0ED10B483E
:10AAA000007830B10A48006820B1002008498031A0
:10AAB000086003E00120064980310860704700000B
:10AAC000281700207A000020780000209000002045
:10AAD000008121427000002070B502F012F9054695
:10AAE00005F008F804460C48007848B195B18CB9D7
:10AAF0000020094908700F21072008F009FA09E031
:10AB000044B10120044908700121072008F000FA2F
:10AB100013F0CEF970BD0000540100202DE9F04380
:10AB2000A7B091480078002877D014228FA122A8DE
:10AB3000FDF772FC142292A11DA8FDF76DFC1422F2
:10AB400094A118A8FDF768FC97A00068179097A03B
:10AB50000068169096A103C9CDE9140196A103C916
:10AB6000CDE9120196A207CA0FAB07C397A2D2E99B
:10AB700000109268CDE90D020C9197A103C9CDE9AF
:10AB80000A0197A103C9CDE9080197A103C9CDE93D
:10AB9000060197A103C9CDE9040197A103C9CDE935
:10ABA000020197A103C9CDE90001112222A996480B
:10ABB000FDF77DFCC4B211221DA99348FDF777FC77
:10ABC000C5B204B115B907F033FFBDE0112218A9D1
:10ABD0008D48FDF76CFCC4B214B906F0ABFDB3E0D0
:10ABE000032217A98848FDF762FCC4B2032216A904
:10ABF0008548FDF75CFCC5B204B17DB9092008F0B9
:10AC0000D9F80921012008F099F80121082008F05D
:10AC10007FF901207D49087096E0A2E0042214A982
:10AC20007948FDF744FCC4B274B9112008F0C2F8A9
:10AC30001121012008F082F80121082008F068F9AC
:10AC40000120724908707FE0042212A96E48FDF7C6
:10AC50002EFCC4B274B9122008F0ACF81221012005
:10AC600008F06CF80121082008F052F9012067492A
:10AC7000087069E008220FA96348FDF718FCC4B208
:10AC800074B9022008F096F80221012008F056F865
:10AC90000121082008F03CF901205C49087053E0CC
:10ACA00008220CA95848FDF702FCC4B274B906206A
:10ACB00008F080F80621012008F040F80121082062
:10ACC00008F026F90120514908703DE006220AA942
:10ACD0004D48FDF7ECFBC4B2082202A94A48FDF733
:10ACE000E6FBC5B2082269464748FDF7E0FBC6B25D
:10ACF000062208A94448FDF7DAFBC7B2062206A9D6
:10AD00004148FDF7D4FB00F0FF08082204A93E48A3
:10AD1000FDF7CDFB00F0FF0944B13DB136B12FB1D5
:10AD2000B8F1000F02D0B9F1000F0DD1132008F0D7
:10AD300041F81321012008F001F80121082008F052
:10AD4000E7F80120314908702F4812F0D1F90020AE
:10AD5000054908702EA013F0EFFA01202F49087062
:10AD600000BF27B0BDE8F083A9020020524553453B
:10AD7000543030303030303030303030300000003F
:10AD80007265736574303030303030303030303090
:10AD900030000000524553455431313131313131A9
:10ADA00031313131310000004C5348004C534B00DD
:10ADB0004C574C47000000005744414E0000000033
:10ADC0004C47414734445933000000004C35383477
:10ADD00043344439000000004C45465945440000C6
:10ADE0004C454641454300004C4546414643000022
:10ADF0004C454659454343324C4744434839314713
:10AE00004C574C44414135471873002082000020C4
:10AE1000534554204F4B0D0A000000001E01002036
:10AE200010B503460020002221B164245C4394FB4A
:10AE3000F1F4A2B2502A01DB012004E0322A01DB46
:10AE4000022000E0032010BD3EB54FF0FF34002586
:10AE500017A207CA8DE807000C21684606F002FB1E
:10AE600004460A2010F090FE54B1322010F08CFEFF
:10AE70000C21684606F0F6FA04460CB1681E3EBD89
:10AE80000A2010F081FE4FF400710C4806F0AEFA73
:10AE90000546022D08D109480078902804D10748BA
:10AEA000407808B90020EAE74FF0FF30E7E70000FC
:10AEB00080E0EF03073E0400F0F0F0FF297300206C
:10AEC00070B52DED068B04460D46022D22DD0120C6
:10AED0001249087000262179E27801EB0220FDF783
:10AEE0005DFF41EC1A0B9FED0E0B53EC102BFDF7A1
:10AEF00074FE41EC190B9FED0C0B53EC102BFDF77E
:10AF000066FE41EC180BFDF767FF86B230460AF08B
:10AF100095F800BFBDEC068B70BD0000B5000020A9
:10AF20009A9999999999B93F9A99999999117140D2
:10AF300070B52DED068B04460D46022D22DD012055
:10AF40001249087000262179E27801EB0220FDF712
:10AF500025FF41EC1A0B9FED0E0B53EC102BFDF768
:10AF60003CFE41EC190B9FED0C0B53EC102BFDF745
:10AF70008DFD41EC180BFDF72FFF86B230460AF02D
:10AF80005DF800BFBDEC068B70BD0000B500002071
:10AF90009A9999999999B93F0000000000405F4043
:10AFA00070B504460D46022D0CDD012006490870DF
:10AFB00000262079E17800EB012086B230460AF0C5
:10AFC0003DF800BF70BD0000B500002070470000D4
:10AFD00001200149087070474000002070B500242E
:10AFE0001BE004EB84000E4901EB40004078092887
:10AFF00011D122460125002628463146FDF7EDF9FC
:10B000000A46C143D043074AD2E9003219401040F2
:10B01000044AC2E90010601CC4B2212CE1D370BD07
:10B02000EAE601083000002070470000014908608E
:10B030007047000014040140002123498279002A4E
:10B040003AD00A46126803689A430B461A600A1DF2
:10B05000126803689A430B1D1A60027911440A684A
:10B0600003681A430A60184A0832126803689A4350
:10B07000154B08331A601A1D126803689A43124B65
:10B080000C331A604279102A0ED11A1F1268036815
:10B090001A430D4B08331A601A1D126803681A43CD
:10B0A000094B0C331A600DE00749427911440A68D4
:10B0B00003681A430A6005E0027911440A680368CC
:10B0C0009A430A60704700000004014010B5024630
:10B0D0000B460020002102E0545C6040491C99426C
:10B0E000FAD310BD70B586B00446002C49D126486D
:10B0F0000078012845D124484078002841D0A52077
:10B100008DF80F005A218DF8101003218DF81110C1
:10B1100000218DF812108DF813108DF814108DF891
:10B12000151050218DF8161008208DF80E000420FF
:10B130008DF80C001548029000208DF80D000126B6
:10B14000002500BF10484078022804D101A807F06C
:10B1500039FD064607E00C484078012803D101A8D4
:10B16000FEF71EFD064606B903E0681CC5B2032DB6
:10B17000E8DB00BF0448007840F080000249087016
:10B1800000BF06B070BD0000600000205D00F11837
:10B19000F0B587B004460F46A079512809D1E0796F
:10B1A0004E2805D10020AD4908700120AC49087037
:10B1B00000E000BF00BFA07885287DD006DC0C2809
:10B1C00009D0812879D0822878D133E1912876D0AE
:10B1D0009228F9D12FE194F82000012858D194F851
:10B1E000210001284CD1002518229EA101A8FDF7BD
:10B1F00013F994F8220094F8211000EB012085B295
:10B2000001A8FDF73FF9C0F1FC00A84237D301A81F
:10B21000FDF738F90646324601A99848FDF7FCF8D3
:10B2200001A8FDF72FF9954946182A4604F1230194
:10B230003046FDF7F1F801A8FDF724F928448F49BD
:10B2400022220A5401A8FDF71DF92844401C8B490D
:10B250000D220A5401A8FDF715F92844801C8749DE
:10B260000A220A5401A8FDF70DF92844C01C83499D
:10B2700000220A5401208249087010F05DFE98E017
:10B2800094F821000228FAD101207E49087090E04C
:10B29000002520E07C4830F81500D0B9E07FA17F80
:10B2A00040EA0120784921F8150094F820007749F8
:10B2B00048557748A16903E07CE0C3E0CAE0C2E0FA
:10B2C0000160A18B818073480078401C714908702F
:10B2D00003E0681CC5B2082DDCD300BF082D00D3E5
:10B2E000B9E094F8200002281FD194F82100012829
:10B2F0005ED094F82100022803D101206149087032
:10B3000056E094F82100032803D101206249087017
:10B310004EE094F8210004284AD094F82100052832
:10B3200046D101205D49087042E094F820000328CE
:10B3300009D1112204F121015948FDF76DF80120CE
:10B340005849087034E094F8200004281DD194F87E
:10B3500021005549087094F82100012828D194F85B
:10B360002200002824DB94F82200142820DC94F822
:10B37000220007F01FFD94F82210012007F0DEFCE8
:10B380000121082007F0C4FD12E094F820000528F0
:10B390000ED094F82000062803D1012043490870FC
:10B3A00006E094F82000072802D1012040490870E7
:10B3B00000BF50E00EF0AAFE05463E480068281A7D
:10B3C000052836D8207E8DF81400607E8DF8150093
:10B3D000A07E8DF81600E07E8DF81700207F8DF896
:10B3E0001800607F8DF8190032490968681A03ABAC
:10B3F000DDE9051211F00CFEDDE9030111F0A8FCF6
:10B40000012801D11649087000202B49087001203D
:10B410002A490870DDE905010EF038FD2849098840
:10B42000884205D026480288DDE9030111F074FD49
:10B4300000BF10E000BF0EF069FE0546002007497E
:10B44000087008E000BF00200449087001201D4971
:10B45000087000E000BF00BF07B0F0BD0001002091
:10B46000E50000200D0A41542B48545450504152DD
:10B47000413D2255524C222C2200000068690020D8
:10B48000200200201A010020963F002034010020F5
:10B49000210100201D0100201C0100201B010020B3
:10B4A00018730020A9020020820000201F01002044
:10B4B00020010020F8000020EA000020F200002017
:10B4C000E80000201801002010B500BF6A4800788D
:10B4D000002870D1694800880EF0EAFD5A282CDD5A
:10B4E00008226648018866480EF0A8FD6448007886
:10B4F000232822D16248407823281ED160488079D1
:10B5000051281AD15E48C0794E2816D108205D49CD
:10B5100008805A4800880830584908800846008842
:10B52000B0F5006F04DB08460088A0F500600880D5
:10B53000544801885248FFF72BFE504800880EF00F
:10B54000B7FD172836DD18224C4801884C480EF00C
:10B5500075FD4B48007823281AD1494840782328A4
:10B5600016D14748C07D4649897D00EB01204549F9
:10B570000880084600881930088008460088B0F521
:10B58000807F05D801203C49087000203E490870A2
:10B590003948007800286CD138480088401C374969
:10B5A000088008460088B0F5006F62DB0020088044
:10B5B0005FE000E05EE0314800880EF079FD31493F
:10B5C000098888423CDB00202B4908702D480288FE
:10B5D0002A4801882A480EF031FD2A480088C01EFA
:10B5E00081B22748801CFFF771FD26490988491E52
:10B5F000234A515C884216D1204800882149098895
:10B6000008441E49088008460088B0F5006F04DB36
:10B6100008460088A0F5006008801A48018818488C
:10B62000FFF7B6FD25E015480088401C1349088047
:10B6300008460088B0F5006F1BDB0020088018E08A
:10B6400011480078642805DA0F480078401C0E493C
:10B6500008700FE000200849087008480088401C66
:10B660000649088008460088B0F5006F01DB00201D
:10B6700008802BE700BF10BDF0000020EC00002088
:10B6800020350020EE000020F10000202DE9FC41D3
:10B690000546002600244FF6FF77242075490870E0
:10B6A00048707548007801281ED030208870C81C6A
:10B6B0000DF09CFE044621466E48C01CFFF74AF878
:10B6C00007466C4AD21C1119B8B20CF035FD232183
:10B6D000601D684A1154A01D11540D21E01D115424
:10B6E0000A21401C11541EE0312062498870C81C98
:10B6F0000CF034FD044621465E48C01CFFF72AF8D2
:10B700000746E21C5B4BD118B8B20CF015FD2321A3
:10B71000601D584A1154A01D11540D21E01D1154F3
:10B720000A21401C115404F1090081B2514801F072
:10B7300001F805F0010050B3E01D81B2002007F0D0
:10B7400097FC8046B8F1000F12D14B4800780128D1
:10B7500009D000BFA01D81B2464800F0EBFF761C67
:10B76000042EF7DB04E0A01D81B2424800F0E2FFA6
:10B7700042480088401C41490880084600884FF62E
:10B78000FB71884202DB00203C49088000BF05F0C5
:10B79000020000286CD005F00100E8B338480078BA
:10B7A00001283AD14FF6FF70ADF806003548006821
:10B7B00018302044801D3449344A127841F8220060
:10B7C00008463249097850F82100B0F5C01F17D358
:10B7D0002D482E49097850F82100A0F5C0102A49BB
:10B7E0002A4A127841F8220008462849097850F878
:10B7F000210000F50C302449244A127841F8220037
:10B8000022480078401C21490870084600783228F8
:10B8100007D30020087004E0FFE74FF6F070ADF8A2
:10B82000060004F1180013490844009901600199C9
:10B83000416004F1200082B20123124801680D48E2
:10B8400012F0AAFD04F120000E49096808440D49D0
:10B85000086008460068B0F5C01F09D308460068B4
:10B86000A0F5C01008600846006800F50C300860BC
:10B87000BDE8FC81D83700203201002016010020ED
:10B88000F50000200401002020360020F3000020F5
:10B8900070B59AB005460024002615A80DF0C0FE2C
:10B8A0000CA80DF09FFE002028550C21601C295487
:10B8B000A41C9DF85E002855641CBDF83A000012D7
:10B8C0002855BDF83A00C1B2601C2954A41CBDF82B
:10B8D00050004FF6FF71884206D0BDF850000A2193
:10B8E00090FBF1F0285502E0BDF850002855601C8F
:10B8F00084B29DF83D002855601C84B29DF83E003E
:10B900002855601C84B201A80EF01AFA9DED0A0AAF
:10B91000BCEEC00A10EE100A00F5FA70C0F3072062
:10B9200028559DED0A0ABCEEC00A10EE100A00F57B
:10B93000FA70C1B2601C2954A01C84B2BDF84E003C
:10B940004FF6FF71884206D0BDF84E603012285580
:10B95000601C2E5405E0BDF84E6030122855601C66
:10B960002E54A01C84B220461AB070BD2DE9F04FB1
:10B970002DED028BA1B005460024A0460026A2466C
:10B980000027A3460DA80DF055FE1CA80DF048FE9B
:10B9900004A80DF027FE68460DF070FDA1469FED4E
:10B9A000DF0AB0EE408A9DF82200FF2801D04FF058
:10B9B000010BBDF87000C11700EB5171CF10BDF83D
:10B9C00038004FF6FF7188420CD0BDF8380048B1FE
:10B9D000BDF8380000122855BDF83800C1B2601C0F
:10B9E000295421E0DDF8090008EE100A03E009F10E
:10B9F000010000F0FF09B0EE480AF7EE000A78EE09
:10BA0000600AB0EE608AF7EE000AB4EEE00AF1EEEA
:10BA100010FAECDCB9F1820F01DD4FF0000905F8F6
:10BA200004900021601C295415F804A0A01C84B2C5
:10BA30009DF876002855601C84B29DF87700285543
:10BA4000601C84B29DF878002855601C84B2BDF853
:10BA5000700000122855BDF87000C1B2601C295456
:10BA6000A01C84B2BDF8720000122855BDF8720007
:10BA7000C1B2601C2954A01C84B2BDF8140000128D
:10BA80002855BDF81400C1B2601C2954A01C84B212
:10BA9000BAF10F0F04DDA2480078401CA0490870DD
:10BAA0009F480078642802DD5F209D4908709C480B
:10BAB00000785A2802DD01209A49087099480078D8
:10BAC000012811D1BAF1000F08D19548007800285B
:10BAD00004DD93480078401E914908709048007832
:10BAE00010B900208F490870BDF816004FF6FF719D
:10BAF00088421BD0BDF81600B0F57A6F16DDBDF890
:10BB0000160000122855BDF81600C1B2601C295459
:10BB1000BDF81600142190FBF1F086B2C82E01DCAE
:10BB2000002675E0A6F1C80086B271E000267D48C7
:10BB30000078012856D140F28A20874200DC39E0A3
:10BB4000B7F5487F0BDA784800680721B0FBF1F2BF
:10BB500001FB1208C8EBC800C01E86B22AE040F202
:10BB6000145087420EDA7048007800F0030000F1AC
:10BB7000010840F21450C01B90FBF8F0C0F52F7084
:10BB800086B217E0B7F5C86F0DDA6748007800F0A5
:10BB9000010000F10108A7F24C4090FBF8F000F51D
:10BBA000FA7086B206E0A7F5C8604FF4FA7101EBAF
:10BBB000400086B24EB15C4800680A21B0FBF1F249
:10BBC00001FB120806EB080086B206F1C80000EB84
:10BBD00080004FF6FF7101EA800630122855601C84
:10BBE0002E5415E0BBF1000F0DD0002606F1C80061
:10BBF00000EB80004FF6FF7101EA800630122855F5
:10BC0000601C2E5404E0FF202855FF21601C29549D
:10BC1000A01C84B29DF822002855601C84B2BDF897
:10BC2000720000EB40004FF6FF7101EA8000ADF8B2
:10BC30007400BDF8740000122855BDF87400C1B23C
:10BC4000601C2954A01C84B2BDF8100000122855B5
:10BC5000BDF81000C1B2601C2954A01C84B2BDF80C
:10BC6000120000122855BDF81200C1B2601C295400
:10BC7000A01C84B2BDF8180000122855BDF81800A9
:10BC8000C1B2601C2954A01C84B29DF879002855CB
:10BC9000601C84B29DF83A002855601C84B29DF85F
:10BCA000000000F001009DF80010C1F3400140EADF
:10BCB00081009DF80010C1F3800140EAC1002855C1
:10BCC000601C84B22819DDF801100160201D84B2C7
:10BCD0002819DDF805100160201D84B20D98020EB0
:10BCE0002046611C8CB22A540D98C0F307422046AE
:10BCF000611C8CB22A540D98C0F307222046611CA7
:10BD00008CB22A540D98C2B22046611C8CB22A54BF
:10BD1000204621B0BDEC028BBDE8F08F0000000092
:10BD2000DF000020E0000020480100202DE9F04164
:10BD3000B4B00546002425A80DF07CFC01A80DF048
:10BD40005BFC9DF80400012802D1022028551EE06A
:10BD50009DF8040002280BD09DF80400032807D0AA
:10BD60009DF80400042803D09DF80400052802D1A2
:10BD7000002028550BE09DF80400FF2802D09DF814
:10BD8000040010B9FE20285501E0FE202855601C53
:10BD900084B29DF80500FF2802D1FE208DF8050031
:10BDA0009DF80500FE2802D100208DF805009DF8C1
:10BDB00005002855601C84B2BDF80600C0F30020C1
:10BDC000BDF80610C1F3402140EA4100BDF806105D
:10BDD000C1F3802140EA8100BDF80610C1F3C02103
:10BDE00040EAC100BDF80610C1F3003140EA01107D
:10BDF000BDF80610C1F3403140EA4110BDF806100D
:10BE0000C1F3803140EA8110BDF80610C90B40EA49
:10BE1000C1102855601C84B2BDF80600C0F3400173
:10BE200061F35F00BDF80610C1F3800140EA8100B4
:10BE3000BDF80610C1F3C00140EAC100BDF806100C
:10BE4000C1F3001140EA0110BDF80610C1F3401122
:10BE500040EA4110BDF80610C1F3801140EA81109C
:10BE6000BDF80610C1F3C01140EAC1102855601C8E
:10BE700084B2A01E285CFF2808D1601E285CFF2821
:10BE800004D10021A01E2954601E2954BDF80800C9
:10BE9000C0F30020BDF80810C1F3402140EA410082
:10BEA000BDF80810C1F3802140EA8100BDF80810F8
:10BEB000C1F3C02140EAC100BDF80810C1F3003150
:10BEC00040EA0110BDF80810C1F3403140EA4110CA
:10BED000BDF80810C1F3803140EA8110BDF80810A8
:10BEE000C90B40EAC1102855601C84B2BDF8080097
:10BEF000C0F3400161F35F00BDF80810C1F3800199
:10BF000040EA8100BDF80810C1F3C00140EAC10059
:10BF1000BDF80810C1F3001140EA0110BDF8081087
:10BF2000C1F3401140EA4110BDF80810C1F380117F
:10BF300040EA8110BDF80810C1F3C01140EAC110F9
:10BF40002855601C84B2A01E285CFF2808D1601E02
:10BF5000285CFF2804D10021A01E2954601E29540A
:10BF6000281900F03DF904F1110084B228191222B9
:10BF70000DF19B01FCF750FA002706E0E019285C60
:10BF8000FF2800D003E0781CC7B2122FF6DB00BFF9
:10BF9000122F04D128192A221221FCF74FFA04F19A
:10BFA000120084B212210DF1AD000FF06DFB2819C3
:10BFB00012220DF1AD01FCF72FFA4FF0000809E055
:10BFC00004EB0800285CFF2800D006E008F101001F
:10BFD00000F0FF08B8F1120FF2DB00BFB8F1120F4A
:10BFE00004D1281930221221FCF728FA04F112009A
:10BFF00084B2BDF80A0000122855BDF80A00C1B28B
:10C00000601C2954A01C84B2BDF80C0000122855F5
:10C010009DF80C10601C2954A01C84B2BDF80E00C1
:10C02000001228559DF80E10601C2954A01C84B2E3
:10C03000BDF81000001228559DF81010601C2954FE
:10C04000A01C84B2BDF81200001228559DF81210F1
:10C05000601C2954A01C84B2BDF81400001228559D
:10C060009DF81410601C2954A01C84B2BDF8160061
:10C07000001228559DF81610601C2954A01C84B28B
:10C08000BDF81800001228559DF81810601C29549E
:10C09000A01C84B2BDF81A00001228559DF81A1091
:10C0A000601C2954A01C84B2BDF81C000012285545
:10C0B0009DF81C10601C2954A01C84B2BDF81E0001
:10C0C000001228559DF81E10601C2954A01C84B233
:10C0D000BDF820000012285501A8017F601C2954DA
:10C0E000A01C84B2BDF822000012285501A8817F4F
:10C0F000601C2954A01C84B2BDF8240000122855ED
:10C100009DF82410601C2954A01C84B2BDF82600A0
:10C11000001228559DF82610601C2954A01C84B2DA
:10C12000BDF82800001228559DF82810601C2954DD
:10C13000A01C84B2BDF82A00001228559DF82A10D0
:10C14000601C2954A01C84B2BDF82C000012285594
:10C150009DF82C10601C2954A01C84B29DF82E0060
:10C16000FF2802D1FE208DF82E009DF82E00FE281B
:10C1700002D100208DF82E009DF82E002855601C5D
:10C1800084B2002624E00DF12F0010F8262020466E
:10C19000611C8CB22A540DF12F0000EB860042780E
:10C1A0002146601C84B26A540DF12F0000EB86001A
:10C1B00082782046611C8CB22A540DF12F0000EBCE
:10C1C0008600C2782046611C8CB22A54701CC6B20C
:10C1D0009DF82E00B042D6DC204634B0BDE8F08198
:10C1E00030B58FB00546002468460DF023FA0D489F
:10C1F000007818B10B480078FF2808D12819FF22D1
:10C200001121FCF71BF904F1110084B207E0281991
:10C2100011220449FCF700F904F1110084B2204610
:10C220000FB030BD18730020002000BF08E00649A1
:10C2300051F82010054A914200D103E0411CC8B2D8
:10C240001028F4D300BF7047C4F20108011507217C
:10C250002DE9F04100250DF059FF04460DF04CFF8B
:10C260000746B9480078B84223D0B748007801287B
:10C270000ED1002608E0B54951F826004FF6F071BE
:10C2800012F0ECF8701CC6B2B14800788642F2DBBE
:10C29000AD4807700020AF490870AF490870AF493A
:10C2A0000870AF490870AF490870A9490870AE49D5
:10C2B0000870AE480078012803D0AD480078012806
:10C2C0007DD12846FFF7E2F9B8F1650F01DD4FF0A7
:10C2D00000089D480078012860D1A0490870A54851
:10C2E0000078012856D19C480078A0BBA24800687D
:10C2F000201A052803D29A480078002862D198486D
:10C30000007805281DDB90480078012819D197484E
:10C310000078012808D100209449087097480460EB
:10C32000006811F0EDFD4DE00EF0D8FC18B10120D1
:10C330008949087046E00FF0F9FD0020884908702F
:10C3400040E011F02FFD86480078401C84490870B9
:10C350008948046036E0FFE77E48007818B901207C
:10C360007C4908702EE001207C4908702846FFF7C0
:10C370008DF97C480078032824DD81480DF0EAFE21
:10C3800020B100207F4908700FF0D6FD00207549CC
:10C39000087017E001207749087013E073480078AF
:10C3A00001280FD175480068201AB0F5967F09D38F
:10C3B00000206E49087071480460006800E085E064
:10C3C00011F09EFD69480078012846D16148007847
:10C3D000012831D16C480DF051F86B48007800F01D
:10C3E000010088B945F001052DB15C48007810B115
:10C3F0002846FDF7A9FA00205C4908705F480460F0
:10C40000006811F07DFD28E05C480068201AB0F556
:10C41000967F22D345F001052DB15048007810B128
:10C420002846FDF791FA00205049087053480460EF
:10C43000006811F065FD10E050480068201AB0F562
:10C44000967F0AD32846FDF77FFA002047490870F7
:10C450004A480460006811F053FD454800780128FF
:10C4600070D14A480068201A1E286BD340480078D3
:10C47000012825D14548046045F002053748007879
:10C4800008B145F00105DDB12F480078012801D140
:10C4900045F001052C480078012804D1394800787E
:10C4A00008B90BF009FB2F480078401C2D49087093
:10C4B0002846FDF749FA31480460006811F020FD74
:10C4C00033480088401C324908803BE01E48007811
:10C4D00001282ED11F48007858B30FF0F5F800203E
:10C4E0001C4908701D490870002608E0174951F8DA
:10C4F00026004FF47F4111F0B1FF701CC6B2144802
:10C5000000788642F2DB002011490870002608E01E
:10C51000204951F826004FF47F4111F09FFF701C15
:10C52000C6B2114800788642F2DB00200E4908703E
:10C5300008E000200749087008490870044908709D
:10C5400009490870BDE8F081F50000202036002080
:10C55000F3000020E4000020E5000020F2000020AD
:10C56000EA00002000010020F40000200D0100205E
:10C5700070000020E6000020F800002010010020DC
:10C580001873002018010020683C0020FC000020E7
:10C590003E010020E83600202DE9F8434FF0000866
:10C5A00000245B48007800287ED05A480078F8B113
:10C5B000594800783C281BDA58480078C0B9012255
:10C5C000694657480FF052FC044655480068B0F5DC
:10C5D000C01F0DD301205149087051480068A0F5D3
:10C5E000C0104F4908600846006800F50C3008602C
:10C5F000002CD9D0E07DA17D00EB012085B205F1B2
:10C6000019000619F0884FF6F071884202D14FF0F8
:10C6100001080EE0F0884FF6FF71884209D10DF055
:10C6200075FD07463068381A642801D94FF00108B3
:10C6300000BFB8F1000F69D005F1190081B20120E7
:10C6400006F016FD8146B9F1000F05D105F119007C
:10C6500081B2204600F06EF832480078012854D1AB
:10C660000098B0F5C01F07D30098A0F5C010009047
:10C67000009800F50C3000900098801D0090009804
:10C68000B0F5C01F07D30098A0F5C0100090009827
:10C6900000F50C30009024491F4A1278009841F8A8
:10C6A00022001D48007800E030E0401C1A49087064
:10C6B000084600783C2801DD00200870002017495A
:10C6C0000870002708E0194951F827004FF47F410E
:10C6D00011F0C4FE781CC7B2154800788742F2DB1F
:10C6E000002013490870002708E00F4951F827007F
:10C6F0004FF47F4111F0B2FE781CC7B206480078B3
:10C700008742F2DB00200449087000BFBDE8F883CF
:10C71000E4000020F2000020F400002001010020CD
:10C7200008010020F5000020E83600202036002017
:10C73000F300002070B505460E4600BF314628467E
:10C7400011F05EF80446002CF8D032462946024823
:10C7500007F0E4FB70BD0000003801400024002514
:10C760000BF062FA02E00A200FF00EFA0DF022FC44
:10C770000028F8D001F05CFE0A200FF005FA04F062
:10C7800021FE5E480068401C5C4908604FF47A70E6
:10C790000FF0FAF959480068401C5849086004F045
:10C7A00097FF56480068401C544908600DF008FC8B
:10C7B0005349087001F07EFD52480DF0CBFC044651
:10C7C00014B901204E49087096E0FEF785F94B48F0
:10C7D0000068401C494908604B480068401C4A49B1
:10C7E00008604A480088401C4849088044B90A2D1E
:10C7F00006DA681CC5B243480DF0ACFC00B1012458
:10C80000FEF78CF941480088642190FBF1F201FBAE
:10C81000120063281BD13E480CF030FE3C480078E3
:10C8200000F0010038B93B48006880B9012039495F
:10C83000803108600BE03748006820B90120354995
:10C840008031086003E000203249803108603248BE
:10C85000007818B131480078012806D02F480078B8
:10C8600018B12E480078FF283DD10DF0EBFC0DF0FB
:10C870000DFF78B11820FDF74BF845F65A21884294
:10C8800008D10DF043FC264908600DF03FFC064638
:10C8900011F036FB1C4800684FF4FA71B0FBF1F25E
:10C8A00001FB1200582814D11E48007888B11E4898
:10C8B000007808B31D480078022802DD04201949D9
:10C8C00008700BF045FB19480078401C17490870A8
:10C8D00012E0FFF7BDFCFFF75FFEFEF7F5FD0A2053
:10C8E0000FF052F908E012480078012801D00BF04F
:10C8F00021FA64200FF048F967E7000040010020AA
:10C90000E600002018730020480100204C010020A0
:10C91000683C00200C0121420C0100207000002026
:10C920001001002045010020F200002044010020F9
:10C930006F02002010B5FFF777FC18490870082037
:10C94000FCF7E6FF4AF2A55188420ED11020FCF711
:10C95000DFFF04460C20FCF7DBFF44EA00401049EF
:10C96000086000200F49087010E00DF0CFFB0C4963
:10C9700008600DF0CBFB044611F0C2FA45F65A21CF
:10C980001420FCF7D3FF0120064908700021064857
:10C990000FF088F90549086010BD0000140100205F
:10C9A000100100203001002004F301085001002094
:10C9B0002DE9F04102460025002600200023002436
:10C9C000002791F803C00CF00F0591F803C00CF09C
:10C9D000100CBCF1000F03D091F802C04CEA050521
:10C9E00091F800C0BCF1000F31D0146800202BE09A
:10C9F0004FF0010C0CFA00F3B1F800C00CEA03068A
:10CA00009E4220D183004FF00F0C0CFA03F7BC4379
:10CA100005FA03FC4CEA040491F803C0BCF1280FAA
:10CA200006D14FF0010C0CFA00FCC2F814C00AE069
:10CA300091F803C0BCF1480F05D14FF0010C0CFA7E
:10CA400000FCC2F810C0401C0828D1D31460B1F813
:10CA500000C0BCF1FF0F34DD546800202EE000F16F
:10CA6000080C4FF0010808FA0CF3B1F800C00CEA0A
:10CA700003069E4221D183004FF00F0C0CFA03F7FE
:10CA8000BC4305FA03FC4CEA040491F803C0BCF172
:10CA9000280F05D100F1080C08FA0CF8C2F8148030
:10CAA00091F803C0BCF1480F07D100F1080C4FF01A
:10CAB000010808FA0CF8C2F81080401C0828CED3F0
:10CAC0005460BDE8F08102460020D3680B400BB1F2
:10CAD000012000E00020704741617047016170470C
:10CAE0002DE9F04104460D46042D2FDDA078617834
:10CAF00000EB012616480078C0EB0010154901EB49
:10CB0000C0000B301449097800EBC100C17810480F
:10CB10000078C0EB00100F4A02EBC0000B300E4A49
:10CB2000127800EBC200807801EB0020B0420CD1FB
:10CB300001200A49087000272079E17800EB0120E4
:10CB400087B2384608F07AFA00BF00BFBDE8F0812E
:10CB5000A700002060E90108A8000020B50000201F
:10CB600070B504460025002600BF1A480088B0F5BD
:10CB7000967F02DB0020174908801648008800EBEA
:10CB80008000154901EB8000407800F0010060B1A1
:10CB90001048008800EB800011F8200028B10D48F3
:10CBA000008800EB800001EB80050A480088401CEB
:10CBB000084908802DB11CB1284600F04FF82070BC
:10CBC00004E0701C86B2B6F5967FCEDB00BF284627
:10CBD00070BD00009A0000206017002000200E4960
:10CBE0000988B1F5967F02DB00210B4A11800A49C2
:10CBF000098801EB8101094A02EB8101497851B9A9
:10CC00000549098801EB810102EB8100024909888D
:10CC1000491C014A118070479C00002060170020C9
:10CC200000200C4A118800BFB1F5967F00DB00217F
:10CC300001EB8102084B03EB8202527822B9421CBD
:10CC400090B24A1C91B200E002E0B0F5967FEBDBB7
:10CC500000BF70479C0000206017002001460020A4
:10CC60000A4600BF02B904E0431CD8B21269FF288B
:10CC7000F8DB00BF704700000020002100BF154A0C
:10CC80001288521C134B1A801A461288B2F5967FEE
:10CC900001DB00221A80104A0E4B1B8802EB0312A4
:10CCA000127802F00F026AB10B4A0A4B1B8802EBA2
:10CCB0000312127812092AB9074A064B1B8802EBA5
:10CCC000031004E04A1C91B2B1F5967FD7DB00BF98
:10CCD00070470000220000202C03002030B50246DF
:10CCE0000B4600201146002400BF01B907E09C421A
:10CCF00001D1084603E0651CECB20969F5E700BF05
:10CD000030BD10B592B0002406A80DF019F82DE042
:10CD10000124DDF82A000090DDF82E000190BDF816
:10CD20003200ADF808009DF834008DF80A000020AC
:10CD30008DF80B0004A968460DF0CCFC08B900245E
:10CD400018E0DDF81F000090DDF823000190BDF829
:10CD50002700ADF8080000208DF80A0004A96846F5
:10CD60000DF0B8FC08B9002404E003E09DF81E00B3
:10CD70004128CDD000BF204612B010BD70B5054689
:10CD80000026002423E01E4810F8340000F00F00B5
:10CD900001281AD11A4800EBC4004068A8B118480D
:10CDA00000EBC400406840684068696888420CD164
:10CDB000687800F00F00124911F83410B0EB111F21
:10CDC00003D10F4800EBC40603E0601CC4B20A2C78
:10CDD000D9DB00BF7EB90B480078401C09490870B8
:10CDE000084600780A2801DB00200870044805493D
:10CDF000097800EBC106304605F0F7FD304670BDFE
:10CE0000D02E00209E0000200020002108E001EB31
:10CE10004102094B13F8222002B903E04A1C91B2E7
:10CE20006429F4DB00BF642904DA01EB4102024B00
:10CE300003EB820070470000202F002001460022F3
:10CE400041B1486800BF00B902E002468068FAE7D5
:10CE500000BF00BF104670472DE9F04104460D4663
:10CE6000072D2FDBA078617800EB012086B21648F1
:10CE70000078C0EB0010154901EBC0000B301449DD
:10CE8000097800EBC100C1780F480078C0EB0010B2
:10CE90000E4A02EBC0000B300D4A127800EBC200C4
:10CEA000807801EB0020B0420BD1012009490870C5
:10CEB0000027A079617900EB0127B8B208F0BEF82D
:10CEC00000BF00BFBDE8F081A700002060E90108B5
:10CED000A8000020B50000202DE9F04104460D46D1
:10CEE000052D3ADBA078617800EB012086B21C4862
:10CEF0000078C0EB00101B4901EBC0000B301A4951
:10CF0000097800EBC100C17815480078C0EB00102B
:10CF1000144A02EBC0000B30134A127800EBC20037
:10CF2000807801EB0020B04216D101200F49087033
:10CF30000027E07800F0800030B12079E17800EB44
:10CF40000120A0F5004703E02079E17800EB0127FC
:10CF5000B8B208F073F800BF00BFBDE8F081000070
:10CF6000A700002060E90108A8000020B50000200B
:10CF700070B504460D46052D32DB1A480078C0EB2B
:10CF80000010194901EBC0000B301849097800EB7B
:10CF9000C10080786178884222D1A078012802D02F
:10CFA000A07803280BD10120114908702079E1787D
:10CFB00000EB012086B2304608F040F810E0A0787F
:10CFC00002280DD1072D0BDB012009490870A0793B
:10CFD000617900EB012086B2304608F02FF800BFDF
:10CFE00070BD0000A700002060E90108A800002033
:10CFF000B50000202DE9F04104460D46052D36DB35
:10D00000A078617800EB012086B21A480078C0EB66
:10D010000010194901EBC0000B301849097800EBEA
:10D02000C100C17813480078C0EB0010124A02EB2F
:10D03000C0000B30114A127800EBC200807801EB7F
:10D040000020B04212D101200D490870002720793C
:10D05000E17800EB012000EB8000642190FBF1F00F
:10D06000C83887B2384607F0E9FF00BF00BFBDE807
:10D07000F0810000A700002060E90108A80000205E
:10D08000B50000202DE9F04104460D46052D41DD97
:10D0900060780004A17800EB0120E17846181E4872
:10D0A0000078C0EB00101D4901EBC0000B301C499B
:10D0B000097800EBC1008078010417480078C0EBC4
:10D0C0000010164A02EBC0000B30154A127800EB34
:10D0D000C200C07801EB00210F480078C0EB0010BF
:10D0E0000E4A02EBC0000B300D4A127800EBC20072
:10D0F00000790844B0420CD101200A490870002789
:10D100006079217900EB012087B2384607F096FF5D
:10D1100000BF00BFBDE8F081A700002060E9010862
:10D12000A8000020B500002038B5002500BF6846E3
:10D13000FFF716FD044604B92DE0A0780121B1EBFC
:10D14000101F02D1012015490870A07800F00F00CF
:10D15000012805D19DF80010204602F04DFE13E095
:10D16000A07800F00F0002280ED1A0780221B1EBC8
:10D17000101F09D19DF80010204601F081F99DF89B
:10D180000010204607F084F8204605F009FC681CD2
:10D19000C5B2322DCBDB00BF38BD00007C000020C3
:10D1A0002DE9F05F00274FF00108B946022000F09A
:10D1B000C7FDC7B2384605F0A9FD032000F0C0FD49
:10D1C00000F0FF08404605F0ADFD012000F0B8FD7D
:10D1D00000F0FF09484607F083F9062000F0B0FD93
:10D1E00004460F2000EA147AC4F3036BBAF1010F6E
:10D1F00001D1FDF7EDFEBBF1010F02D101200A497B
:10D20000087004F00F05012D05D1484605F0D2FD48
:10D21000012006490870C4F30316012E02D1012033
:10D2200003490870BDE8F09F8800002082000020BC
:10D23000540100202DE9F04104460D46052D44DB44
:10D24000A078617800EB012086B221480078C0EB1D
:10D250000010204901EBC0000B301F49097800EB9A
:10D26000C100C1781A480078C0EB0010194A02EBDF
:10D27000C0000B30184A127800EBC200807801EB36
:10D280000020B04220D10120144908700027E07826
:10D2900000F0800058B12079E17800EB0120800196
:10D2A0004FF47A7190FBF1F0A0F6310708E0207995
:10D2B000E17800EB012080014FF47A7190FBF1F7E7
:10D2C000B8B207F0BBFE00BF00BFBDE8F0810000B0
:10D2D000A700002060E90108A8000020B500002098
:10D2E0002DE9F04104460D46052D34DBA078617828
:10D2F00000EB012086B219480078C0EB00101849F5
:10D3000001EBC0000B301749097800EBC100C17870
:10D3100012480078C0EB0010114A02EBC0000B303D
:10D32000104A127800EBC200807801EB0020B04276
:10D3300010D101200C49087000272079E17800EB1A
:10D3400001200A2190FBF1F0A0F21117B8B207F00A
:10D3500075FE00BF00BFBDE8F0810000A7000020FF
:10D3600060E90108A8000020B500002070B504465F
:10D370000D46042D1FDB10480078C0EB00100F494C
:10D3800001EBC0000B300E49097800EBC10080783A
:10D39000617888420FD101200A490870E078A178AD
:10D3A00000EB01200A2190FBF1F0283886B23046CC
:10D3B00007F044FE00BF70BDA700002060E901082F
:10D3C000A8000020B50000202DE9F04104460D46DC
:10D3D000052D31DBA078617800EB012086B217487B
:10D3E0000078C0EB0010164901EBC0000B30154966
:10D3F000097800EBC100C17810480078C0EB00103C
:10D400000F4A02EBC0000B300E4A127800EBC2004C
:10D41000807801EB0020B0420DD101200A4908704C
:10D4200000272079E17800EB0120283887B23846C0
:10D4300007F004FE00BF00BFBDE8F081A700002098
:10D4400060E90108A8000020B50000202DE9F041A6
:10D4500004460D46052D42DD60780004A17800EBFE
:10D460000120E17846181F480078C0EB00101E49E3
:10D4700001EBC0000B301D49097800EBC10080783A
:10D48000010418480078C0EB0010174A02EBC000F6
:10D490000B30164A127800EBC200C07801EB002175
:10D4A00010480078C0EB00100F4A02EBC0000B30B0
:10D4B0000E4A127800EBC20000790844B0420DD148
:10D4C00001200B49087000276079217900EB0120C9
:10D4D000283887B2384607F0B1FD00BF00BFBDE86D
:10D4E000F0810000A700002060E90108A8000020EA
:10D4F000B50000202DE9F04104460D46062D33DD30
:10D50000A078617800EB012086B218480078C0EB63
:10D510000010174901EBC0000B301649097800EBE9
:10D52000C100C17811480078C0EB0010104A02EB2E
:10D53000C0000B300F4A127800EBC200807801EB7C
:10D540000020B0420FD101200B49087000BFA07924
:10D55000642110FB01F0FA2190FBF1F087B238460C
:10D5600007F06CFD00BF00BFBDE8F081A700002000
:10D5700060E90108A8000020B50000202DE9F04175
:10D5800004460D46062D37DDA078617800EB0120BA
:10D5900086B21A480078C0EB0010194901EBC000B0
:10D5A0000B301849097800EBC100C17813480078A6
:10D5B000C0EB0010124A02EBC0000B30114A127887
:10D5C00000EBC200807801EB0020B04213D10120B3
:10D5D0000D4908700027E0780006217900EB014032
:10D5E000617900EB0120A1790844A0F58777B8B2F2
:10D5F00007F024FD00BF00BFBDE8F081A7000020B8
:10D6000060E90108A8000020B50000202DE9F041E4
:10D6100004460D46052D2FDBA078617800EB012034
:10D6200086B216480078C0EB0010154901EBC00027
:10D630000B301449097800EBC100C1780F4800781D
:10D64000C0EB00100E4A02EBC0000B300D4A1278FE
:10D6500000EBC200807801EB0020B0420BD101202A
:10D66000094908702079E17800EB012087B238463B
:10D6700007F0E4FC00BF00BFBDE8F081A700002078
:10D6800060E90108A8000020B50000202DE9F04164
:10D6900004460D46042D33DDA078617800EB0120AF
:10D6A00086B218480078C0EB0010174901EBC000A3
:10D6B0000B301649097800EBC100C1781148007899
:10D6C000C0EB0010104A02EBC0000B300F4A12787A
:10D6D00000EBC200807801EB0020B0420FD10120A6
:10D6E0000B49087000272079E17800EB01206421C4
:10D6F00090FBF1F087B2384607F0A0FC00BF00BFF6
:10D70000BDE8F081A700002060E90108A800002022
:10D71000B50000202DE9F04104460D46052D2FDB14
:10D72000A078617800EB012086B216480078C0EB43
:10D730000010154901EBC0000B301449097800EBCB
:10D74000C100C1780F480078C0EB00100E4A02EB10
:10D75000C0000B300D4A127800EBC200807801EB5C
:10D760000020B0420BD10120094908702079E178EE
:10D7700000EB01204710384607F060FC00BF00BFF7
:10D78000BDE8F081A700002060E90108A8000020A2
:10D79000B50000202DE9F04104460D46052D2FDB94
:10D7A000A078617800EB012086B216480078C0EBC3
:10D7B0000010154901EBC0000B301449097800EB4B
:10D7C000C100C1780F480078C0EB00100E4A02EB90
:10D7D000C0000B300D4A127800EBC200807801EBDC
:10D7E0000020B0420BD10120094908702079E1786E
:10D7F00000EB01208710384607F020FC00BF00BF77
:10D80000BDE8F081A700002060E90108A800002021
:10D81000B500002070B504460D46022D0CDD012038
:10D82000064908700026A078617800EB012086B2D6
:10D83000304607F003FC00BF70BD0000B5000020BB
:10D840002DE9F04104460D46042D37DDA0786178BE
:10D8500000EB012086B21A480078C0EB001019498D
:10D8600001EBC0000B301849097800EBC100C1780A
:10D8700013480078C0EB0010124A02EBC0000B30D6
:10D88000114A127800EBC200807801EB0020B04210
:10D8900013D101200D49087000BF2079E17800EB19
:10D8A000012040F271214843090190FBF1F0283832
:10D8B00087B2384607F0C2FB00BF00BFBDE8F08169
:10D8C000A700002060E90108A8000020B5000020A2
:10D8D0002DE9F04104460D46052D3EDBA078617828
:10D8E00000EB012086B21E480078C0EB00101D49F5
:10D8F00001EBC0000B301C49097800EBC100C17876
:10D9000017480078C0EB0010164A02EBC0000B303D
:10D91000154A127800EBC200807801EB0020B0427B
:10D920001AD1012011490870E07800F0800058B148
:10D930002079E17801F07F0100EB0120A0F500479C
:10D94000B8B207F07BFB07E02079E17800EB012714
:10D95000B8B207F073FB00BF00BFBDE8F081000064
:10D96000A700002060E90108A8000020B500002001
:10D9700070B504460D46042D1BDB0E480078C0EB45
:10D9800000100D4901EBC0000B300C49097800EB89
:10D99000C1008078617888420BD101200849087065
:10D9A000A078642110FB01F00612304607F046FB18
:10D9B00000BF70BDA700002060E90108A80000209A
:10D9C000B500002070B504460D46042D1EDB10483E
:10D9D0000078C0EB00100F4901EBC0000B300E497E
:10D9E000097800EBC1008078617888420ED101206F
:10D9F0000A490870E078642110FB01F0FF2190FBD8
:10DA0000F1F086B2304607F019FB00BF70BD000090
:10DA1000A700002060E90108A8000020B500002050
:10DA200070B504460D46042D1EDB10480078C0EB8F
:10DA300000100F4901EBC0000B300E49097800EBD4
:10DA4000C1008078617888420ED101200A490870AF
:10DA5000E078A17800EB01200A2190FBF1F086B27A
:10DA6000304607F0EBFA00BF70BD0000A7000020B1
:10DA700060E90108A8000020B500002070B5044648
:10DA80000E46042E22DB12480078C0EB001011492C
:10DA900001EBC0000B301049097800EBC100807821
:10DAA0006178884212D101200C490870E078A17891
:10DAB00000EB012085B20A2095FBF0F085B2A5F1BC
:10DAC000280085B2284607F0B9FA00BF70BD0000F3
:10DAD000A700002060E90108A8000020B500002090
